:020000040000FA
:100000000C945C000C9479000C9479000C947900A9
:100010000C9479000C9479000C9479000C9479007C
:100020000C9479000C9479000C9479000C9479006C
:100030000C9479000C9479000C9479000C9479005C
:100040000C942B010C9479000C9479000C94790099
:100050000C9479000C9479000C9479000C9479003C
:100060000C9479000C947900000000080002010053
:100070000003040700000000000000000000000072
:10008000250028002B0000000000240027002A0083
:10009000040404040404040402020202020203032E
:1000A0000303030301020408102040800102040836
:1000B000102001020408102011241FBECFEFD8E049
:1000C000DEBFCDBF12E0A0E0B1E0E2E9F4E002C0A3
:1000D00005900D92AC34B107D9F725E0ACE4B2E05D
:1000E00001C01D92A531B207E1F70E9475010C9481
:1000F00047020C94000090E0FC01EC55FF4F249166
:1001000080579F4FFC018491882399F090E0880FDD
:10011000991FFC01EA57FF4FA591B491FC01E458E7
:10012000FF4F859194918FB7F894EC91E22BEC936B
:100130008FBF089590E0FC01E859FF4F2491FC0126
:10014000EC55FF4F3491FC01E057FF4FE491EE2353
:10015000C9F0222339F0233001F1A8F4213019F13C
:10016000223029F1F0E0EE0FFF1FE458FF4FA59178
:10017000B4918FB7F894EC91611126C030953E236D
:100180003C938FBF08952730A9F02830C9F0243060
:1001900049F7809180008F7D03C0809180008F7728
:1001A00080938000DFCF84B58F7784BDDBCF84B5AB
:1001B0008F7DFBCF8091B0008F778093B000D2CF3E
:1001C0008091B0008F7DF9CF3E2BDACF3FB7F89406
:1001D0008091510290915202A0915302B091540229
:1001E00026B5A89B05C02F3F19F00196A11DB11D92
:1001F0003FBFBA2FA92F982F8827BC01CD01620FCE
:10020000711D811D911D42E0660F771F881F991F88
:100210004A95D1F708950F931F93CF93DF93CCE2C4
:10022000D1E08881229660E00E949A0081E0CC347F
:10023000D807B9F7C0E0D1E00CE211E0888122963E
:1002400061E00E949A000C171D07C1F7DF91CF9162
:100250001F910F9108951F920F920FB60F921124C4
:100260002F933F938F939F93AF93BF9380914D02B2
:1002700090914E02A0914F02B091500230914C02E9
:1002800023E0230F2D3758F50196A11DB11D2093B2
:100290004C0280934D0290934E02A0934F02B09374
:1002A00050028091510290915202A0915302B0915C
:1002B00054020196A11DB11D8093510290935202E8
:1002C000A0935302B0935402BF91AF919F918F912D
:1002D0003F912F910F900FBE0F901F90189526E819
:1002E000230F0296A11DB11DD2CF789484B58260F0
:1002F00084BD84B5816084BD85B5826085BD85B5CA
:10030000816085BD80916E00816080936E00109247
:1003100081008091810082608093810080918100C2
:100320008160809381008091800081608093800053
:100330008091B10084608093B1008091B0008160B1
:100340008093B00080917A00846080937A008091DD
:100350007A00826080937A0080917A008160809335
:100360007A0080917A00806880937A001092C100B0
:10037000CCE2D1E0888122960E947B0021E0CC343F
:10038000D207C1F7C0E0D1E0888122960E947B00AD
:1003900081E0CC32D807C1F70E940B0195E1692EAC
:1003A00095E0792E20E1E22E21E0F22E30E0C32EFE
:1003B00030E0D32E4CE451E005E512E0980190E0E6
:1003C00080E0F901E80FF91FDA01A80FB91F6D915C
:1003D0007C917183608302968031910591F7405F33
:1003E0005F4F245D3F4F6216730649F7CCE2D1E0C0
:1003F0005880229661E0852D0E949A00B12CA12C94
:10040000F801EA0DFB1D80819181019739F460E0CC
:10041000F501E050FF4F80810E949A0092E0A90E02
:10042000B11CE0E1AE16B10459F70E94E6004B01A1
:100430005C010E94E600681979098A099B09683EF7
:10044000734081059105A8F360E0852D0E949A0014
:1004500080E0A82E81E0B82EF5018081F2E0AF0E99
:10046000B11C61E00E949A00EA14FB04A9F7045D44
:100470001F4F21E0CC34D20709F0BACF0E940B0104
:10048000C114D10409F496CF0E94000093CFF894D0
:10049000FFCF16001700180019001A001B001C00DF
:1004A0001D001E001F002000210022002300240048
:1004B000250026002700280029002A002B002C00F8
:1004C0002D002E002F0030003100320033003400A8
:1004D000350002000400070008000C000D000100B8
:1004E0000100010001000100010001000000010005
:1004F00000000000000000000000010000000100FA
:1005000000000000000000000000010000000100E9
:1005100000000000000000000000010000000100D9
:1005200000000000000000000000010000000100C9
:1005300000000000000000000000010000000100B9
:1005400000000000000000000000010000000100A9
:100550000100010001000100010001000000010094
:100560000000000000000000000001000000010089
:100570000000000000000000000001000000010079
:100580000000000000000000000001000000010069
:100590000000000000000000000001000000010059
:1005A0000000000000000000000001000000010049
:1005B0000000000000000000000001000000010039
:1005C0000000000000000000000001000000010029
:0E05D00000000000000000000000010000001C
:107E0000112484B714BE81FFF0D085E080938100F7
:107E100082E08093C00088E18093C10086E0809377
:107E2000C20080E18093C4008EE0C9D0259A86E02C
:107E300020E33CEF91E0309385002093840096BBD3
:107E4000B09BFECF1D9AA8958150A9F7CC24DD24C4
:107E500088248394B5E0AB2EA1E19A2EF3E0BF2EE7
:107E6000A2D0813461F49FD0082FAFD0023811F036
:107E7000013811F484E001C083E08DD089C08234E0
:107E800011F484E103C0853419F485E0A6D080C0E4
:107E9000853579F488D0E82EFF2485D0082F10E0AE
:107EA000102F00270E291F29000F111F8ED06801E7
:107EB0006FC0863521F484E090D080E0DECF843638
:107EC00009F040C070D06FD0082F6DD080E0C81688
:107ED00080E7D80618F4F601B7BEE895C0E0D1E017
:107EE00062D089930C17E1F7F0E0CF16F0E7DF06D8
:107EF00018F0F601B7BEE89568D007B600FCFDCFD4
:107F0000A601A0E0B1E02C9130E011968C91119780
:107F100090E0982F8827822B932B1296FA010C0160
:107F200087BEE89511244E5F5F4FF1E0A038BF0790
:107F300051F7F601A7BEE89507B600FCFDCF97BE46
:107F4000E89526C08437B1F42ED02DD0F82E2BD052
:107F50003CD0F601EF2C8F010F5F1F4F84911BD097
:107F6000EA94F801C1F70894C11CD11CFA94CF0C13
:107F7000D11C0EC0853739F428D08EE10CD085E9AC
:107F80000AD08FE07ACF813511F488E018D01DD067
:107F900080E101D065CF982F8091C00085FFFCCF94
:107FA0009093C60008958091C00087FFFCCF809118
:107FB000C00084FD01C0A8958091C6000895E0E648
:107FC000F0E098E1908380830895EDDF803219F02E
:107FD00088E0F5DFFFCF84E1DECF1F93182FE3DFCA
:107FE0001150E9F7F2DF1F91089580E0E8DFEE27F6
:047FF000FF270994CA
:027FFE00040479
:00000001FF
