:100000000C945C000C9479000C9479000C947900A9
:100010000C9479000C9479000C9479000C9479007C
:100020000C9479000C9479000C9479000C9479006C
:100030000C9479000C9479000C9479000C9479005C
:100040000C942B010C9479000C9479000C94790099
:100050000C9479000C9479000C9479000C9479003C
:100060000C9479000C947900000000080002010053
:100070000003040700000000000000000000000072
:10008000250028002B0000000000240027002A0083
:10009000040404040404040402020202020203032E
:1000A0000303030301020408102040800102040836
:1000B000102001020408102011241FBECFEFD8E049
:1000C000DEBFCDBF12E0A0E0B1E0E2E9F4E002C0A3
:1000D00005900D92AC34B107D9F725E0ACE4B2E05D
:1000E00001C01D92A531B207E1F70E9475010C9481
:1000F00047020C94000090E0FC01EC55FF4F249166
:1001000080579F4FFC018491882399F090E0880FDD
:10011000991FFC01EA57FF4FA591B491FC01E458E7
:10012000FF4F859194918FB7F894EC91E22BEC936B
:100130008FBF089590E0FC01E859FF4F2491FC0126
:10014000EC55FF4F3491FC01E057FF4FE491EE2353
:10015000C9F0222339F0233001F1A8F4213019F13C
:10016000223029F1F0E0EE0FFF1FE458FF4FA59178
:10017000B4918FB7F894EC91611126C030953E236D
:100180003C938FBF08952730A9F02830C9F0243060
:1001900049F7809180008F7D03C0809180008F7728
:1001A00080938000DFCF84B58F7784BDDBCF84B5AB
:1001B0008F7DFBCF8091B0008F778093B000D2CF3E
:1001C0008091B0008F7DF9CF3E2BDACF3FB7F89406
:1001D0008091510290915202A0915302B091540229
:1001E00026B5A89B05C02F3F19F00196A11DB11D92
:1001F0003FBFBA2FA92F982F8827BC01CD01620FCE
:10020000711D811D911D42E0660F771F881F991F88
:100210004A95D1F708950F931F93CF93DF93CCE2C4
:10022000D1E08881229660E00E949A0081E0CC347F
:10023000D807B9F7C0E0D1E00CE211E0888122963E
:1002400061E00E949A000C171D07C1F7DF91CF9162
:100250001F910F9108951F920F920FB60F921124C4
:100260002F933F938F939F93AF93BF9380914D02B2
:1002700090914E02A0914F02B091500230914C02E9
:1002800023E0230F2D3758F50196A11DB11D2093B2
:100290004C0280934D0290934E02A0934F02B09374
:1002A00050028091510290915202A0915302B0915C
:1002B00054020196A11DB11D8093510290935202E8
:1002C000A0935302B0935402BF91AF919F918F912D
:1002D0003F912F910F900FBE0F901F90189526E819
:1002E000230F0296A11DB11DD2CF789484B58260F0
:1002F00084BD84B5816084BD85B5826085BD85B5CA
:10030000816085BD80916E00816080936E00109247
:1003100081008091810082608093810080918100C2
:100320008160809381008091800081608093800053
:100330008091B10084608093B1008091B0008160B1
:100340008093B00080917A00846080937A008091DD
:100350007A00826080937A0080917A008160809335
:100360007A0080917A00806880937A001092C100B0
:10037000CCE2D1E0888122960E947B0021E0CC343F
:10038000D207C1F7C0E0D1E0888122960E947B00AD
:1003900081E0CC32D807C1F70E940B0195E1692EAC
:1003A00095E0792E20E1E22E21E0F22E30E0C32EFE
:1003B00030E0D32E4CE451E005E512E0980190E0E6
:1003C00080E0F901E80FF91FDA01A80FB91F6D915C
:1003D0007C917183608302968031910591F7405F33
:1003E0005F4F245D3F4F6216730649F7CCE2D1E0C0
:1003F0005880229661E0852D0E949A00B12CA12C94
:10040000F801EA0DFB1D80819181019739F460E0CC
:10041000F501E050FF4F80810E949A0092E0A90E02
:10042000B11CE0E1AE16B10459F70E94E6004B01A1
:100430005C010E94E600681979098A099B09683EF7
:10044000734081059105A8F360E0852D0E949A0014
:1004500080E0A82E81E0B82EF5018081F2E0AF0E99
:10046000B11C61E00E949A00EA14FB04A9F7045D44
:100470001F4F21E0CC34D20709F0BACF0E940B0104
:10048000C114D10409F496CF0E94000093CFF894D0
:02049000FFCF9C
:1004920016001700180019001A001B001C001D008E
:1004A2001E001F002000210022002300240025003E
:1004B20026002700280029002A002B002C002D00EE
:1004C2002E002F003000310032003300340035009E
:1004D20002000400070008000C000D0001000100EA
:1004E2000100010001000100010000000100000004
:1004F20000000000000000000100000001000000F8
:1005020000000000000000000100000001000000E7
:1005120000000000000000000100000001000000D7
:1005220000000000000000000100000001000000C7
:1005320000000000000000000100000001000000B7
:1005420000000000000000000100000001000100A6
:100552000100010001000100010000000100000093
:100562000000000000000000010000000100000087
:100572000000000000000000010000000100000077
:100582000000000000000000010000000100000067
:100592000000000000000000010000000100000057
:1005A2000000000000000000010000000100000047
:1005B2000000000000000000010000000100000037
:1005C2000000000000000000010000000100000027
:0C05D2000000000000000000010000001C
:00000001FF
