:100000000C9417010C9438010C9438010C943801AD
:100010000C9438010C9438010C9438010C9438017C
:100020000C9438010C9438010C9438010C9438016C
:100030000C9438010C9438010C9438010C9438015C
:100040000C9438010C9438010C9438010C9438014C
:100050000C9438010C9438010C9438010C9435023E
:100060000C9438010C9438010C9438010C9438012C
:100070000C9438010C9438010C9438010C9438011C
:100080000C9438010C9438010C9438010C9438010C
:100090000C9438010C9438010C9438010C943801FC
:1000A0000C9438010C9438010C9438010C943801EC
:1000B0000C9438010C9438010C9438010C943801DC
:1000C0000C9438010C9438010C9438010C943801CC
:1000D0000C9438010C9438010C9438010C943801BC
:1000E0000C9438010C94AC010C94A0010C94C30145
:1000F0000C94DF010C94B5010C94CD010C94B90162
:100100000C94DB010C94D1010C94AF010C94D5013B
:100110000C9489010C94A4010C94C7010C948E01D9
:100120000C94A8010C94BF0100000A0B02090C0DED
:100130000E0807030401000000000000000000009A
:1001400000000000000000000000000000000000AF
:10015000000000001211100000000000000000006C
:10016000000000000000000000000000000000008F
:100170002200250028002B002E003100340002014F
:100180000000050108010B010000210024002700E8
:100190002A002D0030003300010100000401070196
:1001A0000A010505050507050808080802020202FC
:1001B0000A0A080804040404010101010101010103
:1001C0000303030303030303040707070C0C0C0CCE
:1001D0000C0C0C0C020202020606060606060606B7
:1001E0000B0B0B0B0B0B0B0B010210202008081044
:1001F0002040102040800201020108040201010297
:10020000040810204080804020100804020180046F
:1002100002018040201008040201080402010102CA
:10022000040810204080010204081020408011249E
:100230001FBECFEFD1E2DEBFCDBF00E00CBF13E0A9
:10024000A0E0B2E0E0E5F7E000E00BBF02C00790FD
:100250000D92A035B107D9F726E0A0E5B3E001C0C3
:100260001D92A935B207E1F70E947F020C94A60304
:100270000C94000090E0FC01E851FE4F24918E5553
:100280009E4FFC018491882399F090E0880F991F7C
:10029000FC01E857FE4FA591B491FC01E259FE4FD5
:1002A000859194918FB7F894EC91E22BEC938FBFEA
:1002B0000895282F30E0F901E85DFE4F9491F9018F
:1002C000E851FE4F44912E553E4FF90124912223CF
:1002D00009F435C0992311F191509231F8F4E92FC6
:1002E000F0E08827E958FE4F8F4F0C949E03A80139
:1002F000AC018901A001A4018E01AF01B501B901D2
:10030000BF01C301C701CD01D1018E01D501DB01C0
:10031000DF01809180008F7780938000E22FF0E0F2
:10032000EE0FFF1FE259FE4FA591B4918FB7F894DD
:10033000EC91611148C040954E234C938FBF0895B6
:10034000809180008F7DE8CF80918000877FE4CF0F
:1003500084B58F7784BDE2CF84B58F7DFBCF80914C
:10036000B0008F778093B000D9CF8091B0008F7D9F
:10037000F9CF809190008F7780939000CFCF8091BC
:1003800090008F7DF9CF80919000877FF5CF80918D
:10039000A0008F778093A000C1CF8091A0008F7DB7
:1003A000F9CF8091A000877FF5CF809120018F77D2
:1003B00080932001B3CF809120018F7DF9CF809170
:1003C0002001877FF5CF4E2BB8CF3FB7F8948091AF
:1003D000550390915603A0915703B091580326B549
:1003E000A89B05C02F3F19F00196A11DB11D3FBF6D
:1003F000BA2FA92F982F8827BC01CD01620F711D3C
:10040000811D911D42E0660F771F881F991F4A9535
:10041000D1F70895EF92FF920F931F93CF93DF933D
:1004200080E2E82E82E0F82E00E012E0D0E0C0E0AA
:10043000F7018081F2E0EF0EF11C60E00E945901AB
:10044000C031D1052CF461E0F80180810E9459018E
:1004500021960E5F1F4FC831D10551F7DF91CF9123
:100460001F910F91FF90EF9008951F920F920FB67A
:100470000F9211242F933F938F939F93AF93BF932A
:100480008091510390915203A0915303B091540372
:100490003091500323E0230F2D3758F50196A11D0D
:1004A000B11D209350038093510390935203A09366
:1004B0005303B09354038091550390915603A09138
:1004C0005703B09158030196A11DB11D80935503A8
:1004D00090935603A0935703B0935803BF91AF91E5
:1004E0009F918F913F912F910F900FBE0F901F9072
:1004F000189526E8230F0296A11DB11DD2CFCF93E8
:10050000DF9300D01F92CDB7DEB7789484B58260B8
:1005100084BD84B5816084BD85B5826085BD85B5A7
:10052000816085BD80916E00816080936E00109225
:1005300081008091810082608093810080918100A0
:100540008160809381008091800081608093800031
:100550008091B10084608093B1008091B00081608F
:100560008093B0008091910082608093910080918F
:1005700091008160809391008091900081608093D0
:1005800090008091A10082608093A1008091A100E1
:1005900081608093A1008091A00081608093A00081
:1005A00080912101826080932101809121018160ED
:1005B00080932101809120018160809320018091AE
:1005C0007A00846080937A0080917A0082608093C0
:1005D0007A0080917A00816080937A0080917A001D
:1005E000806880937A001092C10020E232E03C8360
:1005F0002B83EB81FC8180813296FC83EB830E940C
:100600003A012B813C812055324099F7E0E0F2E03D
:10061000FC83EB83EB81FC8180813296FC83EB834E
:100620000E943A012B813C812052324099F70E946E
:100630000A0299E8292E93E0392E20E0422E20E08C
:10064000522E40E552E029E533E090E080E0F901E8
:10065000E80FF91FDA01A80FB91F6D917C91718322
:10066000608302968031910591F7405F5F4F205D76
:100670003F4F96E02935390741F7E0E2F2E0FC838D
:10068000EB836B807C8009E513E06801F12CE12CA1
:10069000F60180819181019749F5F301F6A5F9836F
:1006A00061E08F2F0E945901F701EE0FFF1FE0500C
:1006B000FE4F20812A8360E0822F0E9459010E9410
:1006C000E5014B015C010E94E501681979098A097D
:1006D0009B09683E734081059105A8F360E089811C
:1006E0000E94590161E08A810E9459018FEFE81A46
:1006F000F80A90E3C90ED11CE0E1EE16F10441F6D0
:100700000E5F1F4FF2E06F0E711C2016310609F0CC
:10071000BCCF2B813C81225031093C832B838EED51
:1007200091E08217930709F0ACCF0E940A024114AE
:10073000510409F486CF0E94000083CFEE0FFF1F03
:10074000881F8BBF0790F691E02D1994F894FFCF86
:1007500016001700180019001A001B001C001D00CD
:100760001E001F002000210022002300240025007D
:1007700026002700280029002A002B002C002D002D
:100780002E002F00300031003200330034003500DD
:1007900002000400070008000A000B000C000D0016
:1007A0000100010001000100010001000000000043
:1007B0000100000000000000000000000100000037
:1007C0000100000000000000000000000100000027
:1007D0000100000000000000000000000100000017
:1007E0000100000000000000000000000100000007
:1007F00001000000000000000000000001000000F7
:1008000001000000000000000000000001000000E6
:1008100001000100010001000100010000000000D2
:1008200001000000000000000000000001000000C6
:1008300001000000000000000000000001000000B6
:1008400001000000000000000000000001000000A6
:100850000100000000000000000000000100000096
:100860000100000000000000000000000100000086
:100870000100000000000000000000000100000076
:100880000100000000000000000000000100000066
:100890000100010001000100010001000000000052
:00000001FF
